{
  "_format": "hh-sol-artifact-1",
  "contractName": "DigiQuip",
  "sourceName": "contracts/DigiQuip.sol",
  "abi": [
    {
      "inputs": [],
      "stateMutability": "nonpayable",
      "type": "constructor"
    },
    {
      "anonymous": false,
      "inputs": [
        {
          "indexed": true,
          "internalType": "address",
          "name": "owner",
          "type": "address"
        },
        {
          "indexed": true,
          "internalType": "address",
          "name": "approved",
          "type": "address"
        },
        {
          "indexed": true,
          "internalType": "uint256",
          "name": "tokenId",
          "type": "uint256"
        }
      ],
      "name": "Approval",
      "type": "event"
    },
    {
      "anonymous": false,
      "inputs": [
        {
          "indexed": true,
          "internalType": "address",
          "name": "owner",
          "type": "address"
        },
        {
          "indexed": true,
          "internalType": "address",
          "name": "operator",
          "type": "address"
        },
        {
          "indexed": false,
          "internalType": "bool",
          "name": "approved",
          "type": "bool"
        }
      ],
      "name": "ApprovalForAll",
      "type": "event"
    },
    {
      "anonymous": false,
      "inputs": [
        {
          "indexed": false,
          "internalType": "uint256",
          "name": "id",
          "type": "uint256"
        },
        {
          "indexed": false,
          "internalType": "string",
          "name": "hash",
          "type": "string"
        },
        {
          "indexed": false,
          "internalType": "uint256",
          "name": "tipAmount",
          "type": "uint256"
        },
        {
          "indexed": false,
          "internalType": "address payable",
          "name": "author",
          "type": "address"
        }
      ],
      "name": "PostCreated",
      "type": "event"
    },
    {
      "anonymous": false,
      "inputs": [
        {
          "indexed": false,
          "internalType": "uint256",
          "name": "id",
          "type": "uint256"
        },
        {
          "indexed": false,
          "internalType": "string",
          "name": "hash",
          "type": "string"
        },
        {
          "indexed": false,
          "internalType": "uint256",
          "name": "tipAmount",
          "type": "uint256"
        },
        {
          "indexed": false,
          "internalType": "address payable",
          "name": "author",
          "type": "address"
        }
      ],
      "name": "PostTipped",
      "type": "event"
    },
    {
      "anonymous": false,
      "inputs": [
        {
          "indexed": true,
          "internalType": "address",
          "name": "from",
          "type": "address"
        },
        {
          "indexed": true,
          "internalType": "address",
          "name": "to",
          "type": "address"
        },
        {
          "indexed": true,
          "internalType": "uint256",
          "name": "tokenId",
          "type": "uint256"
        }
      ],
      "name": "Transfer",
      "type": "event"
    },
    {
      "inputs": [
        {
          "internalType": "address",
          "name": "to",
          "type": "address"
        },
        {
          "internalType": "uint256",
          "name": "tokenId",
          "type": "uint256"
        }
      ],
      "name": "approve",
      "outputs": [],
      "stateMutability": "nonpayable",
      "type": "function"
    },
    {
      "inputs": [
        {
          "internalType": "address",
          "name": "owner",
          "type": "address"
        }
      ],
      "name": "balanceOf",
      "outputs": [
        {
          "internalType": "uint256",
          "name": "",
          "type": "uint256"
        }
      ],
      "stateMutability": "view",
      "type": "function"
    },
    {
      "inputs": [],
      "name": "getAllNFTs",
      "outputs": [
        {
          "internalType": "uint256[]",
          "name": "_ids",
          "type": "uint256[]"
        }
      ],
      "stateMutability": "view",
      "type": "function"
    },
    {
      "inputs": [],
      "name": "getAllPosts",
      "outputs": [
        {
          "components": [
            {
              "internalType": "uint256",
              "name": "id",
              "type": "uint256"
            },
            {
              "internalType": "string",
              "name": "hash",
              "type": "string"
            },
            {
              "internalType": "uint256",
              "name": "tipAmount",
              "type": "uint256"
            },
            {
              "internalType": "address payable",
              "name": "author",
              "type": "address"
            }
          ],
          "internalType": "struct DigiQuip.Post[]",
          "name": "_posts",
          "type": "tuple[]"
        }
      ],
      "stateMutability": "view",
      "type": "function"
    },
    {
      "inputs": [
        {
          "internalType": "uint256",
          "name": "tokenId",
          "type": "uint256"
        }
      ],
      "name": "getApproved",
      "outputs": [
        {
          "internalType": "address",
          "name": "",
          "type": "address"
        }
      ],
      "stateMutability": "view",
      "type": "function"
    },
    {
      "inputs": [
        {
          "internalType": "address",
          "name": "owner",
          "type": "address"
        },
        {
          "internalType": "address",
          "name": "operator",
          "type": "address"
        }
      ],
      "name": "isApprovedForAll",
      "outputs": [
        {
          "internalType": "bool",
          "name": "",
          "type": "bool"
        }
      ],
      "stateMutability": "view",
      "type": "function"
    },
    {
      "inputs": [
        {
          "internalType": "string",
          "name": "_tokenURI",
          "type": "string"
        }
      ],
      "name": "mint",
      "outputs": [
        {
          "internalType": "uint256",
          "name": "",
          "type": "uint256"
        }
      ],
      "stateMutability": "nonpayable",
      "type": "function"
    },
    {
      "inputs": [],
      "name": "name",
      "outputs": [
        {
          "internalType": "string",
          "name": "",
          "type": "string"
        }
      ],
      "stateMutability": "view",
      "type": "function"
    },
    {
      "inputs": [
        {
          "internalType": "uint256",
          "name": "tokenId",
          "type": "uint256"
        }
      ],
      "name": "ownerOf",
      "outputs": [
        {
          "internalType": "address",
          "name": "",
          "type": "address"
        }
      ],
      "stateMutability": "view",
      "type": "function"
    },
    {
      "inputs": [],
      "name": "postCount",
      "outputs": [
        {
          "internalType": "uint256",
          "name": "",
          "type": "uint256"
        }
      ],
      "stateMutability": "view",
      "type": "function"
    },
    {
      "inputs": [
        {
          "internalType": "uint256",
          "name": "",
          "type": "uint256"
        }
      ],
      "name": "posts",
      "outputs": [
        {
          "internalType": "uint256",
          "name": "id",
          "type": "uint256"
        },
        {
          "internalType": "string",
          "name": "hash",
          "type": "string"
        },
        {
          "internalType": "uint256",
          "name": "tipAmount",
          "type": "uint256"
        },
        {
          "internalType": "address payable",
          "name": "author",
          "type": "address"
        }
      ],
      "stateMutability": "view",
      "type": "function"
    },
    {
      "inputs": [
        {
          "internalType": "address",
          "name": "",
          "type": "address"
        }
      ],
      "name": "profiles",
      "outputs": [
        {
          "internalType": "uint256",
          "name": "",
          "type": "uint256"
        }
      ],
      "stateMutability": "view",
      "type": "function"
    },
    {
      "inputs": [
        {
          "internalType": "address",
          "name": "from",
          "type": "address"
        },
        {
          "internalType": "address",
          "name": "to",
          "type": "address"
        },
        {
          "internalType": "uint256",
          "name": "tokenId",
          "type": "uint256"
        }
      ],
      "name": "safeTransferFrom",
      "outputs": [],
      "stateMutability": "nonpayable",
      "type": "function"
    },
    {
      "inputs": [
        {
          "internalType": "address",
          "name": "from",
          "type": "address"
        },
        {
          "internalType": "address",
          "name": "to",
          "type": "address"
        },
        {
          "internalType": "uint256",
          "name": "tokenId",
          "type": "uint256"
        },
        {
          "internalType": "bytes",
          "name": "_data",
          "type": "bytes"
        }
      ],
      "name": "safeTransferFrom",
      "outputs": [],
      "stateMutability": "nonpayable",
      "type": "function"
    },
    {
      "inputs": [
        {
          "internalType": "address",
          "name": "operator",
          "type": "address"
        },
        {
          "internalType": "bool",
          "name": "approved",
          "type": "bool"
        }
      ],
      "name": "setApprovalForAll",
      "outputs": [],
      "stateMutability": "nonpayable",
      "type": "function"
    },
    {
      "inputs": [
        {
          "internalType": "uint256",
          "name": "_id",
          "type": "uint256"
        }
      ],
      "name": "setProfile",
      "outputs": [],
      "stateMutability": "nonpayable",
      "type": "function"
    },
    {
      "inputs": [
        {
          "internalType": "bytes4",
          "name": "interfaceId",
          "type": "bytes4"
        }
      ],
      "name": "supportsInterface",
      "outputs": [
        {
          "internalType": "bool",
          "name": "",
          "type": "bool"
        }
      ],
      "stateMutability": "view",
      "type": "function"
    },
    {
      "inputs": [],
      "name": "symbol",
      "outputs": [
        {
          "internalType": "string",
          "name": "",
          "type": "string"
        }
      ],
      "stateMutability": "view",
      "type": "function"
    },
    {
      "inputs": [
        {
          "internalType": "uint256",
          "name": "_id",
          "type": "uint256"
        }
      ],
      "name": "tipPostOwner",
      "outputs": [],
      "stateMutability": "payable",
      "type": "function"
    },
    {
      "inputs": [],
      "name": "tokenCount",
      "outputs": [
        {
          "internalType": "uint256",
          "name": "",
          "type": "uint256"
        }
      ],
      "stateMutability": "view",
      "type": "function"
    },
    {
      "inputs": [
        {
          "internalType": "uint256",
          "name": "tokenId",
          "type": "uint256"
        }
      ],
      "name": "tokenURI",
      "outputs": [
        {
          "internalType": "string",
          "name": "",
          "type": "string"
        }
      ],
      "stateMutability": "view",
      "type": "function"
    },
    {
      "inputs": [
        {
          "internalType": "address",
          "name": "from",
          "type": "address"
        },
        {
          "internalType": "address",
          "name": "to",
          "type": "address"
        },
        {
          "internalType": "uint256",
          "name": "tokenId",
          "type": "uint256"
        }
      ],
      "name": "transferFrom",
      "outputs": [],
      "stateMutability": "nonpayable",
      "type": "function"
    },
    {
      "inputs": [
        {
          "internalType": "string",
          "name": "_postHash",
          "type": "string"
        }
      ],
      "name": "uploadPost",
      "outputs": [],
      "stateMutability": "nonpayable",
      "type": "function"
    }
  ],
  "bytecode": "0x60806040523480156200001157600080fd5b506040518060400160405280600881526020017f44696769517569700000000000000000000000000000000000000000000000008152506040518060400160405280600481526020017f4441505000000000000000000000000000000000000000000000000000000000815250816000908051906020019062000096929190620000b8565b508060019080519060200190620000af929190620000b8565b505050620001cd565b828054620000c69062000168565b90600052602060002090601f016020900481019282620000ea576000855562000136565b82601f106200010557805160ff191683800117855562000136565b8280016001018555821562000136579182015b828111156200013557825182559160200191906001019062000118565b5b50905062000145919062000149565b5090565b5b80821115620001645760008160009055506001016200014a565b5090565b600060028204905060018216806200018157607f821691505b602082108114156200019857620001976200019e565b5b50919050565b7f4e487b7100000000000000000000000000000000000000000000000000000000600052602260045260246000fd5b613e7480620001dd6000396000f3fe6080604052600436106101405760003560e01c806385d3cb37116100b6578063bdd05adb1161006f578063bdd05adb14610483578063c87b56dd146104ac578063d6313c06146104e9578063d85d3d2714610505578063e0391b0914610542578063e985e9c51461056d57610140565b806385d3cb371461037557806395d89b411461039e5780639f181b5e146103c9578063a22cb465146103f4578063b88d4fde1461041d578063bbe156271461044657610140565b806317906c2e1161010857806317906c2e1461025357806323b872dd1461027e57806330561100146102a757806342842e0e146102d25780636352211e146102fb57806370a082311461033857610140565b806301ffc9a71461014557806306fdde0314610182578063081812fc146101ad578063095ea7b3146101ea5780630b1e7f8314610213575b600080fd5b34801561015157600080fd5b5061016c6004803603810190610167919061291e565b6105aa565b604051610179919061302f565b60405180910390f35b34801561018e57600080fd5b5061019761068c565b6040516101a4919061304a565b60405180910390f35b3480156101b957600080fd5b506101d460048036038101906101cf91906129b1565b61071e565b6040516101e19190612f84565b60405180910390f35b3480156101f657600080fd5b50610211600480360381019061020c91906128e2565b6107a3565b005b34801561021f57600080fd5b5061023a600480360381019061023591906129b1565b6108bb565b60405161024a9493929190613373565b60405180910390f35b34801561025f57600080fd5b50610268610993565b604051610275919061330c565b60405180910390f35b34801561028a57600080fd5b506102a560048036038101906102a091906127dc565b610999565b005b3480156102b357600080fd5b506102bc6109f9565b6040516102c99190612feb565b60405180910390f35b3480156102de57600080fd5b506102f960048036038101906102f491906127dc565b610c06565b005b34801561030757600080fd5b50610322600480360381019061031d91906129b1565b610c26565b60405161032f9190612f84565b60405180910390f35b34801561034457600080fd5b5061035f600480360381019061035a9190612777565b610cd8565b60405161036c919061330c565b60405180910390f35b34801561038157600080fd5b5061039c600480360381019061039791906129b1565b610d90565b005b3480156103aa57600080fd5b506103b3610e4d565b6040516103c0919061304a565b60405180910390f35b3480156103d557600080fd5b506103de610edf565b6040516103eb919061330c565b60405180910390f35b34801561040057600080fd5b5061041b600480360381019061041691906128a6565b610ee5565b005b34801561042957600080fd5b50610444600480360381019061043f919061282b565b610efb565b005b34801561045257600080fd5b5061046d60048036038101906104689190612777565b610f5d565b60405161047a919061330c565b60405180910390f35b34801561048f57600080fd5b506104aa60048036038101906104a59190612970565b610f75565b005b3480156104b857600080fd5b506104d360048036038101906104ce91906129b1565b611129565b6040516104e0919061304a565b60405180910390f35b61050360048036038101906104fe91906129b1565b61127b565b005b34801561051157600080fd5b5061052c60048036038101906105279190612970565b61159f565b604051610539919061330c565b60405180910390f35b34801561054e57600080fd5b506105576115e6565b604051610564919061300d565b60405180910390f35b34801561057957600080fd5b50610594600480360381019061058f91906127a0565b61172e565b6040516105a1919061302f565b60405180910390f35b60007f80ac58cd000000000000000000000000000000000000000000000000000000007bffffffffffffffffffffffffffffffffffffffffffffffffffffffff1916827bffffffffffffffffffffffffffffffffffffffffffffffffffffffff1916148061067557507f5b5e139f000000000000000000000000000000000000000000000000000000007bffffffffffffffffffffffffffffffffffffffffffffffffffffffff1916827bffffffffffffffffffffffffffffffffffffffffffffffffffffffff1916145b806106855750610684826117c2565b5b9050919050565b60606000805461069b906136a1565b80601f01602080910402602001604051908101604052809291908181526020018280546106c7906136a1565b80156107145780601f106106e957610100808354040283529160200191610714565b820191906000526020600020905b8154815290600101906020018083116106f757829003601f168201915b5050505050905090565b60006107298261182c565b610768576040517f08c379a000000000000000000000000000000000000000000000000000000000815260040161075f9061320c565b60405180910390fd5b6004600083815260200190815260200160002060009054906101000a900473ffffffffffffffffffffffffffffffffffffffff169050919050565b60006107ae82610c26565b90508073ffffffffffffffffffffffffffffffffffffffff168373ffffffffffffffffffffffffffffffffffffffff16141561081f576040517f08c379a00000000000000000000000000000000000000000000000000000000081526004016108169061328c565b60405180910390fd5b8073ffffffffffffffffffffffffffffffffffffffff1661083e611898565b73ffffffffffffffffffffffffffffffffffffffff16148061086d575061086c81610867611898565b61172e565b5b6108ac576040517f08c379a00000000000000000000000000000000000000000000000000000000081526004016108a39061312c565b60405180910390fd5b6108b683836118a0565b505050565b60096020528060005260406000206000915090508060000154908060010180546108e4906136a1565b80601f0160208091040260200160405190810160405280929190818152602001828054610910906136a1565b801561095d5780601f106109325761010080835404028352916020019161095d565b820191906000526020600020905b81548152906001019060200180831161094057829003601f168201915b5050505050908060020154908060030160009054906101000a900473ffffffffffffffffffffffffffffffffffffffff16905084565b60085481565b6109aa6109a4611898565b82611959565b6109e9576040517f08c379a00000000000000000000000000000000000000000000000000000000081526004016109e0906132ec565b60405180910390fd5b6109f4838383611a37565b505050565b606060085467ffffffffffffffff811115610a3d577f4e487b7100000000000000000000000000000000000000000000000000000000600052604160045260246000fd5b604051908082528060200260200182016040528015610a7657816020015b610a6361255d565b815260200190600190039081610a5b5790505b50905060005b8151811015610c025760096000600183610a96919061350c565b815260200190815260200160002060405180608001604052908160008201548152602001600182018054610ac9906136a1565b80601f0160208091040260200160405190810160405280929190818152602001828054610af5906136a1565b8015610b425780601f10610b1757610100808354040283529160200191610b42565b820191906000526020600020905b815481529060010190602001808311610b2557829003601f168201915b50505050508152602001600282015481526020016003820160009054906101000a900473ffffffffffffffffffffffffffffffffffffffff1673ffffffffffffffffffffffffffffffffffffffff1673ffffffffffffffffffffffffffffffffffffffff1681525050828281518110610be4577f4e487b7100000000000000000000000000000000000000000000000000000000600052603260045260246000fd5b60200260200101819052508080610bfa90613704565b915050610a7c565b5090565b610c2183838360405180602001604052806000815250610efb565b505050565b6000806002600084815260200190815260200160002060009054906101000a900473ffffffffffffffffffffffffffffffffffffffff169050600073ffffffffffffffffffffffffffffffffffffffff168173ffffffffffffffffffffffffffffffffffffffff161415610ccf576040517f08c379a0000000000000000000000000000000000000000000000000000000008152600401610cc69061316c565b60405180910390fd5b80915050919050565b60008073ffffffffffffffffffffffffffffffffffffffff168273ffffffffffffffffffffffffffffffffffffffff161415610d49576040517f08c379a0000000000000000000000000000000000000000000000000000000008152600401610d409061314c565b60405180910390fd5b600360008373ffffffffffffffffffffffffffffffffffffffff1673ffffffffffffffffffffffffffffffffffffffff168152602001908152602001600020549050919050565b3373ffffffffffffffffffffffffffffffffffffffff16610db082610c26565b73ffffffffffffffffffffffffffffffffffffffff1614610e06576040517f08c379a0000000000000000000000000000000000000000000000000000000008152600401610dfd906132ac565b60405180910390fd5b80600a60003373ffffffffffffffffffffffffffffffffffffffff1673ffffffffffffffffffffffffffffffffffffffff1681526020019081526020016000208190555050565b606060018054610e5c906136a1565b80601f0160208091040260200160405190810160405280929190818152602001828054610e88906136a1565b8015610ed55780601f10610eaa57610100808354040283529160200191610ed5565b820191906000526020600020905b815481529060010190602001808311610eb857829003601f168201915b5050505050905090565b60075481565b610ef7610ef0611898565b8383611c9e565b5050565b610f0c610f06611898565b83611959565b610f4b576040517f08c379a0000000000000000000000000000000000000000000000000000000008152600401610f42906132ec565b60405180910390fd5b610f5784848484611e0b565b50505050565b600a6020528060005260406000206000915090505481565b6000610f8033610cd8565b11610fc0576040517f08c379a0000000000000000000000000000000000000000000000000000000008152600401610fb79061324c565b60405180910390fd5b6000815111611004576040517f08c379a0000000000000000000000000000000000000000000000000000000008152600401610ffb9061322c565b60405180910390fd5b6008600081548092919061101790613704565b919050555060405180608001604052806008548152602001828152602001600081526020013373ffffffffffffffffffffffffffffffffffffffff1681525060096000600854815260200190815260200160002060008201518160000155602082015181600101908051906020019061109192919061259b565b506040820151816002015560608201518160030160006101000a81548173ffffffffffffffffffffffffffffffffffffffff021916908373ffffffffffffffffffffffffffffffffffffffff1602179055509050507fc66336337a24e513f909b3b25119854dba8385d51307dbc7d31d1b2805e19c7e6008548260003360405161111e9493929190613327565b60405180910390a150565b60606111348261182c565b611173576040517f08c379a000000000000000000000000000000000000000000000000000000000815260040161116a906131ec565b60405180910390fd5b6000600660008481526020019081526020016000208054611193906136a1565b80601f01602080910402602001604051908101604052809291908181526020018280546111bf906136a1565b801561120c5780601f106111e15761010080835404028352916020019161120c565b820191906000526020600020905b8154815290600101906020018083116111ef57829003601f168201915b50505050509050600061121d611e67565b9050600081511415611233578192505050611276565b600082511115611268578082604051602001611250929190612f60565b60405160208183030381529060405292505050611276565b61127184611e7e565b925050505b919050565b60008111801561128d57506008548111155b6112cc576040517f08c379a00000000000000000000000000000000000000000000000000000000081526004016112c3906131ac565b60405180910390fd5b60006009600083815260200190815260200160002060405180608001604052908160008201548152602001600182018054611306906136a1565b80601f0160208091040260200160405190810160405280929190818152602001828054611332906136a1565b801561137f5780601f106113545761010080835404028352916020019161137f565b820191906000526020600020905b81548152906001019060200180831161136257829003601f168201915b50505050508152602001600282015481526020016003820160009054906101000a900473ffffffffffffffffffffffffffffffffffffffff1673ffffffffffffffffffffffffffffffffffffffff1673ffffffffffffffffffffffffffffffffffffffff168152505090503373ffffffffffffffffffffffffffffffffffffffff16816060015173ffffffffffffffffffffffffffffffffffffffff16141561145d576040517f08c379a0000000000000000000000000000000000000000000000000000000008152600401611454906132cc565b60405180910390fd5b806060015173ffffffffffffffffffffffffffffffffffffffff166108fc349081150290604051600060405180830381858888f193505050501580156114a7573d6000803e3d6000fd5b5034816040018181516114ba919061350c565b9150818152505080600960008481526020019081526020016000206000820151816000015560208201518160010190805190602001906114fb92919061259b565b506040820151816002015560608201518160030160006101000a81548173ffffffffffffffffffffffffffffffffffffffff021916908373ffffffffffffffffffffffffffffffffffffffff1602179055509050507f20988fe475351e75813672abada1dddb7ac67cbbeb81e61e1160b8329d8cdf1c6008548260200151836040015184606001516040516115939493929190613373565b60405180910390a15050565b6000600760008154809291906115b490613704565b91905055506115c533600754611f25565b6115d160075483611f43565b6115dc600754610d90565b6007549050919050565b60606115f133610cd8565b67ffffffffffffffff811115611630577f4e487b7100000000000000000000000000000000000000000000000000000000600052604160045260246000fd5b60405190808252806020026020018201604052801561165e5781602001602082028036833780820191505090505b50905060008060075490506000600190505b81811015611728573373ffffffffffffffffffffffffffffffffffffffff1661169882610c26565b73ffffffffffffffffffffffffffffffffffffffff161415611715576001816116c1919061350c565b8484815181106116fa577f4e487b7100000000000000000000000000000000000000000000000000000000600052603260045260246000fd5b602002602001018181525050828061171190613704565b9350505b808061172090613704565b915050611670565b50505090565b6000600560008473ffffffffffffffffffffffffffffffffffffffff1673ffffffffffffffffffffffffffffffffffffffff16815260200190815260200160002060008373ffffffffffffffffffffffffffffffffffffffff1673ffffffffffffffffffffffffffffffffffffffff16815260200190815260200160002060009054906101000a900460ff16905092915050565b60007f01ffc9a7000000000000000000000000000000000000000000000000000000007bffffffffffffffffffffffffffffffffffffffffffffffffffffffff1916827bffffffffffffffffffffffffffffffffffffffffffffffffffffffff1916149050919050565b60008073ffffffffffffffffffffffffffffffffffffffff166002600084815260200190815260200160002060009054906101000a900473ffffffffffffffffffffffffffffffffffffffff1673ffffffffffffffffffffffffffffffffffffffff1614159050919050565b600033905090565b816004600083815260200190815260200160002060006101000a81548173ffffffffffffffffffffffffffffffffffffffff021916908373ffffffffffffffffffffffffffffffffffffffff160217905550808273ffffffffffffffffffffffffffffffffffffffff1661191383610c26565b73ffffffffffffffffffffffffffffffffffffffff167f8c5be1e5ebec7d5bd14f71427d1e84f3dd0314c0f7b2291e5b200ac8c7c3b92560405160405180910390a45050565b60006119648261182c565b6119a3576040517f08c379a000000000000000000000000000000000000000000000000000000000815260040161199a9061310c565b60405180910390fd5b60006119ae83610c26565b90508073ffffffffffffffffffffffffffffffffffffffff168473ffffffffffffffffffffffffffffffffffffffff161480611a1d57508373ffffffffffffffffffffffffffffffffffffffff16611a058461071e565b73ffffffffffffffffffffffffffffffffffffffff16145b80611a2e5750611a2d818561172e565b5b91505092915050565b8273ffffffffffffffffffffffffffffffffffffffff16611a5782610c26565b73ffffffffffffffffffffffffffffffffffffffff1614611aad576040517f08c379a0000000000000000000000000000000000000000000000000000000008152600401611aa49061308c565b60405180910390fd5b600073ffffffffffffffffffffffffffffffffffffffff168273ffffffffffffffffffffffffffffffffffffffff161415611b1d576040517f08c379a0000000000000000000000000000000000000000000000000000000008152600401611b14906130cc565b60405180910390fd5b611b28838383611fb7565b611b336000826118a0565b6001600360008573ffffffffffffffffffffffffffffffffffffffff1673ffffffffffffffffffffffffffffffffffffffff1681526020019081526020016000206000828254611b839190613593565b925050819055506001600360008473ffffffffffffffffffffffffffffffffffffffff1673ffffffffffffffffffffffffffffffffffffffff1681526020019081526020016000206000828254611bda919061350c565b92505081905550816002600083815260200190815260200160002060006101000a81548173ffffffffffffffffffffffffffffffffffffffff021916908373ffffffffffffffffffffffffffffffffffffffff160217905550808273ffffffffffffffffffffffffffffffffffffffff168473ffffffffffffffffffffffffffffffffffffffff167fddf252ad1be2c89b69c2b068fc378daa952ba7f163c4a11628f55a4df523b3ef60405160405180910390a4611c99838383611fbc565b505050565b8173ffffffffffffffffffffffffffffffffffffffff168373ffffffffffffffffffffffffffffffffffffffff161415611d0d576040517f08c379a0000000000000000000000000000000000000000000000000000000008152600401611d04906130ec565b60405180910390fd5b80600560008573ffffffffffffffffffffffffffffffffffffffff1673ffffffffffffffffffffffffffffffffffffffff16815260200190815260200160002060008473ffffffffffffffffffffffffffffffffffffffff1673ffffffffffffffffffffffffffffffffffffffff16815260200190815260200160002060006101000a81548160ff0219169083151502179055508173ffffffffffffffffffffffffffffffffffffffff168373ffffffffffffffffffffffffffffffffffffffff167f17307eab39ab6107e8899845ad3d59bd9653f200f220920489ca2b5937696c3183604051611dfe919061302f565b60405180910390a3505050565b611e16848484611a37565b611e2284848484611fc1565b611e61576040517f08c379a0000000000000000000000000000000000000000000000000000000008152600401611e589061306c565b60405180910390fd5b50505050565b606060405180602001604052806000815250905090565b6060611e898261182c565b611ec8576040517f08c379a0000000000000000000000000000000000000000000000000000000008152600401611ebf9061326c565b60405180910390fd5b6000611ed2611e67565b90506000815111611ef25760405180602001604052806000815250611f1d565b80611efc84612158565b604051602001611f0d929190612f60565b6040516020818303038152906040525b915050919050565b611f3f828260405180602001604052806000815250612305565b5050565b611f4c8261182c565b611f8b576040517f08c379a0000000000000000000000000000000000000000000000000000000008152600401611f829061318c565b60405180910390fd5b80600660008481526020019081526020016000209080519060200190611fb292919061259b565b505050565b505050565b505050565b6000611fe28473ffffffffffffffffffffffffffffffffffffffff16612360565b1561214b578373ffffffffffffffffffffffffffffffffffffffff1663150b7a0261200b611898565b8786866040518563ffffffff1660e01b815260040161202d9493929190612f9f565b602060405180830381600087803b15801561204757600080fd5b505af192505050801561207857506040513d601f19601f820116820180604052508101906120759190612947565b60015b6120fb573d80600081146120a8576040519150601f19603f3d011682016040523d82523d6000602084013e6120ad565b606091505b506000815114156120f3576040517f08c379a00000000000000000000000000000000000000000000000000000000081526004016120ea9061306c565b60405180910390fd5b805181602001fd5b63150b7a0260e01b7bffffffffffffffffffffffffffffffffffffffffffffffffffffffff1916817bffffffffffffffffffffffffffffffffffffffffffffffffffffffff191614915050612150565b600190505b949350505050565b606060008214156121a0576040518060400160405280600181526020017f30000000000000000000000000000000000000000000000000000000000000008152509050612300565b600082905060005b600082146121d25780806121bb90613704565b915050600a826121cb9190613562565b91506121a8565b60008167ffffffffffffffff811115612214577f4e487b7100000000000000000000000000000000000000000000000000000000600052604160045260246000fd5b6040519080825280601f01601f1916602001820160405280156122465781602001600182028036833780820191505090505b5090505b600085146122f95760018261225f9190613593565b9150600a8561226e919061374d565b603061227a919061350c565b60f81b8183815181106122b6577f4e487b7100000000000000000000000000000000000000000000000000000000600052603260045260246000fd5b60200101907effffffffffffffffffffffffffffffffffffffffffffffffffffffffffffff1916908160001a905350600a856122f29190613562565b945061224a565b8093505050505b919050565b61230f8383612383565b61231c6000848484611fc1565b61235b576040517f08c379a00000000000000000000000000000000000000000000000000000000081526004016123529061306c565b60405180910390fd5b505050565b6000808273ffffffffffffffffffffffffffffffffffffffff163b119050919050565b600073ffffffffffffffffffffffffffffffffffffffff168273ffffffffffffffffffffffffffffffffffffffff1614156123f3576040517f08c379a00000000000000000000000000000000000000000000000000000000081526004016123ea906131cc565b60405180910390fd5b6123fc8161182c565b1561243c576040517f08c379a0000000000000000000000000000000000000000000000000000000008152600401612433906130ac565b60405180910390fd5b61244860008383611fb7565b6001600360008473ffffffffffffffffffffffffffffffffffffffff1673ffffffffffffffffffffffffffffffffffffffff1681526020019081526020016000206000828254612498919061350c565b92505081905550816002600083815260200190815260200160002060006101000a81548173ffffffffffffffffffffffffffffffffffffffff021916908373ffffffffffffffffffffffffffffffffffffffff160217905550808273ffffffffffffffffffffffffffffffffffffffff16600073ffffffffffffffffffffffffffffffffffffffff167fddf252ad1be2c89b69c2b068fc378daa952ba7f163c4a11628f55a4df523b3ef60405160405180910390a461255960008383611fbc565b5050565b6040518060800160405280600081526020016060815260200160008152602001600073ffffffffffffffffffffffffffffffffffffffff1681525090565b8280546125a7906136a1565b90600052602060002090601f0160209004810192826125c95760008555612610565b82601f106125e257805160ff1916838001178555612610565b82800160010185558215612610579182015b8281111561260f5782518255916020019190600101906125f4565b5b50905061261d9190612621565b5090565b5b8082111561263a576000816000905550600101612622565b5090565b600061265161264c846133e4565b6133bf565b90508281526020810184848401111561266957600080fd5b61267484828561365f565b509392505050565b600061268f61268a84613415565b6133bf565b9050828152602081018484840111156126a757600080fd5b6126b284828561365f565b509392505050565b6000813590506126c981613de2565b92915050565b6000813590506126de81613df9565b92915050565b6000813590506126f381613e10565b92915050565b60008151905061270881613e10565b92915050565b600082601f83011261271f57600080fd5b813561272f84826020860161263e565b91505092915050565b600082601f83011261274957600080fd5b813561275984826020860161267c565b91505092915050565b60008135905061277181613e27565b92915050565b60006020828403121561278957600080fd5b6000612797848285016126ba565b91505092915050565b600080604083850312156127b357600080fd5b60006127c1858286016126ba565b92505060206127d2858286016126ba565b9150509250929050565b6000806000606084860312156127f157600080fd5b60006127ff868287016126ba565b9350506020612810868287016126ba565b925050604061282186828701612762565b9150509250925092565b6000806000806080858703121561284157600080fd5b600061284f878288016126ba565b9450506020612860878288016126ba565b935050604061287187828801612762565b925050606085013567ffffffffffffffff81111561288e57600080fd5b61289a8782880161270e565b91505092959194509250565b600080604083850312156128b957600080fd5b60006128c7858286016126ba565b92505060206128d8858286016126cf565b9150509250929050565b600080604083850312156128f557600080fd5b6000612903858286016126ba565b925050602061291485828601612762565b9150509250929050565b60006020828403121561293057600080fd5b600061293e848285016126e4565b91505092915050565b60006020828403121561295957600080fd5b6000612967848285016126f9565b91505092915050565b60006020828403121561298257600080fd5b600082013567ffffffffffffffff81111561299c57600080fd5b6129a884828501612738565b91505092915050565b6000602082840312156129c357600080fd5b60006129d184828501612762565b91505092915050565b60006129e68383612edf565b905092915050565b60006129fa8383612f42565b60208301905092915050565b612a0f816135d9565b82525050565b612a1e816135d9565b82525050565b612a2d816135c7565b82525050565b6000612a3e82613466565b612a4881856134ac565b935083602082028501612a5a85613446565b8060005b85811015612a965784840389528151612a7785826129da565b9450612a8283613492565b925060208a01995050600181019050612a5e565b50829750879550505050505092915050565b6000612ab382613471565b612abd81856134bd565b9350612ac883613456565b8060005b83811015612af9578151612ae088826129ee565b9750612aeb8361349f565b925050600181019050612acc565b5085935050505092915050565b612b0f816135eb565b82525050565b6000612b208261347c565b612b2a81856134ce565b9350612b3a81856020860161366e565b612b438161383a565b840191505092915050565b612b578161364d565b82525050565b6000612b6882613487565b612b7281856134df565b9350612b8281856020860161366e565b612b8b8161383a565b840191505092915050565b6000612ba182613487565b612bab81856134f0565b9350612bbb81856020860161366e565b612bc48161383a565b840191505092915050565b6000612bda82613487565b612be48185613501565b9350612bf481856020860161366e565b80840191505092915050565b6000612c0d6032836134f0565b9150612c188261384b565b604082019050919050565b6000612c306025836134f0565b9150612c3b8261389a565b604082019050919050565b6000612c53601c836134f0565b9150612c5e826138e9565b602082019050919050565b6000612c766024836134f0565b9150612c8182613912565b604082019050919050565b6000612c996019836134f0565b9150612ca482613961565b602082019050919050565b6000612cbc602c836134f0565b9150612cc78261398a565b604082019050919050565b6000612cdf6038836134f0565b9150612cea826139d9565b604082019050919050565b6000612d02602a836134f0565b9150612d0d82613a28565b604082019050919050565b6000612d256029836134f0565b9150612d3082613a77565b604082019050919050565b6000612d48602e836134f0565b9150612d5382613ac6565b604082019050919050565b6000612d6b600f836134f0565b9150612d7682613b15565b602082019050919050565b6000612d8e6020836134f0565b9150612d9982613b3e565b602082019050919050565b6000612db16031836134f0565b9150612dbc82613b67565b604082019050919050565b6000612dd4602c836134f0565b9150612ddf82613bb6565b604082019050919050565b6000612df76019836134f0565b9150612e0282613c05565b602082019050919050565b6000612e1a602a836134f0565b9150612e2582613c2e565b604082019050919050565b6000612e3d602f836134f0565b9150612e4882613c7d565b604082019050919050565b6000612e606021836134f0565b9150612e6b82613ccc565b604082019050919050565b6000612e836033836134f0565b9150612e8e82613d1b565b604082019050919050565b6000612ea66018836134f0565b9150612eb182613d6a565b602082019050919050565b6000612ec96031836134f0565b9150612ed482613d93565b604082019050919050565b6000608083016000830151612ef76000860182612f42565b5060208301518482036020860152612f0f8282612b5d565b9150506040830151612f246040860182612f42565b506060830151612f376060860182612a06565b508091505092915050565b612f4b81613643565b82525050565b612f5a81613643565b82525050565b6000612f6c8285612bcf565b9150612f788284612bcf565b91508190509392505050565b6000602082019050612f996000830184612a24565b92915050565b6000608082019050612fb46000830187612a24565b612fc16020830186612a24565b612fce6040830185612f51565b8181036060830152612fe08184612b15565b905095945050505050565b600060208201905081810360008301526130058184612a33565b905092915050565b600060208201905081810360008301526130278184612aa8565b905092915050565b60006020820190506130446000830184612b06565b92915050565b600060208201905081810360008301526130648184612b96565b905092915050565b6000602082019050818103600083015261308581612c00565b9050919050565b600060208201905081810360008301526130a581612c23565b9050919050565b600060208201905081810360008301526130c581612c46565b9050919050565b600060208201905081810360008301526130e581612c69565b9050919050565b6000602082019050818103600083015261310581612c8c565b9050919050565b6000602082019050818103600083015261312581612caf565b9050919050565b6000602082019050818103600083015261314581612cd2565b9050919050565b6000602082019050818103600083015261316581612cf5565b9050919050565b6000602082019050818103600083015261318581612d18565b9050919050565b600060208201905081810360008301526131a581612d3b565b9050919050565b600060208201905081810360008301526131c581612d5e565b9050919050565b600060208201905081810360008301526131e581612d81565b9050919050565b6000602082019050818103600083015261320581612da4565b9050919050565b6000602082019050818103600083015261322581612dc7565b9050919050565b6000602082019050818103600083015261324581612dea565b9050919050565b6000602082019050818103600083015261326581612e0d565b9050919050565b6000602082019050818103600083015261328581612e30565b9050919050565b600060208201905081810360008301526132a581612e53565b9050919050565b600060208201905081810360008301526132c581612e76565b9050919050565b600060208201905081810360008301526132e581612e99565b9050919050565b6000602082019050818103600083015261330581612ebc565b9050919050565b60006020820190506133216000830184612f51565b92915050565b600060808201905061333c6000830187612f51565b818103602083015261334e8186612b96565b905061335d6040830185612b4e565b61336a6060830184612a15565b95945050505050565b60006080820190506133886000830187612f51565b818103602083015261339a8186612b96565b90506133a96040830185612f51565b6133b66060830184612a15565b95945050505050565b60006133c96133da565b90506133d582826136d3565b919050565b6000604051905090565b600067ffffffffffffffff8211156133ff576133fe61380b565b5b6134088261383a565b9050602081019050919050565b600067ffffffffffffffff8211156134305761342f61380b565b5b6134398261383a565b9050602081019050919050565b6000819050602082019050919050565b6000819050602082019050919050565b600081519050919050565b600081519050919050565b600081519050919050565b600081519050919050565b6000602082019050919050565b6000602082019050919050565b600082825260208201905092915050565b600082825260208201905092915050565b600082825260208201905092915050565b600082825260208201905092915050565b600082825260208201905092915050565b600081905092915050565b600061351782613643565b915061352283613643565b9250827fffffffffffffffffffffffffffffffffffffffffffffffffffffffffffffffff038211156135575761355661377e565b5b828201905092915050565b600061356d82613643565b915061357883613643565b925082613588576135876137ad565b5b828204905092915050565b600061359e82613643565b91506135a983613643565b9250828210156135bc576135bb61377e565b5b828203905092915050565b60006135d282613623565b9050919050565b60006135e482613623565b9050919050565b60008115159050919050565b60007fffffffff0000000000000000000000000000000000000000000000000000000082169050919050565b600073ffffffffffffffffffffffffffffffffffffffff82169050919050565b6000819050919050565b600061365882613643565b9050919050565b82818337600083830152505050565b60005b8381101561368c578082015181840152602081019050613671565b8381111561369b576000848401525b50505050565b600060028204905060018216806136b957607f821691505b602082108114156136cd576136cc6137dc565b5b50919050565b6136dc8261383a565b810181811067ffffffffffffffff821117156136fb576136fa61380b565b5b80604052505050565b600061370f82613643565b91507fffffffffffffffffffffffffffffffffffffffffffffffffffffffffffffffff8214156137425761374161377e565b5b600182019050919050565b600061375882613643565b915061376383613643565b925082613773576137726137ad565b5b828206905092915050565b7f4e487b7100000000000000000000000000000000000000000000000000000000600052601160045260246000fd5b7f4e487b7100000000000000000000000000000000000000000000000000000000600052601260045260246000fd5b7f4e487b7100000000000000000000000000000000000000000000000000000000600052602260045260246000fd5b7f4e487b7100000000000000000000000000000000000000000000000000000000600052604160045260246000fd5b6000601f19601f8301169050919050565b7f4552433732313a207472616e7366657220746f206e6f6e20455243373231526560008201527f63656976657220696d706c656d656e7465720000000000000000000000000000602082015250565b7f4552433732313a207472616e736665722066726f6d20696e636f72726563742060008201527f6f776e6572000000000000000000000000000000000000000000000000000000602082015250565b7f4552433732313a20746f6b656e20616c7265616479206d696e74656400000000600082015250565b7f4552433732313a207472616e7366657220746f20746865207a65726f2061646460008201527f7265737300000000000000000000000000000000000000000000000000000000602082015250565b7f4552433732313a20617070726f766520746f2063616c6c657200000000000000600082015250565b7f4552433732313a206f70657261746f7220717565727920666f72206e6f6e657860008201527f697374656e7420746f6b656e0000000000000000000000000000000000000000602082015250565b7f4552433732313a20617070726f76652063616c6c6572206973206e6f74206f7760008201527f6e6572206e6f7220617070726f76656420666f7220616c6c0000000000000000602082015250565b7f4552433732313a2062616c616e636520717565727920666f7220746865207a6560008201527f726f206164647265737300000000000000000000000000000000000000000000602082015250565b7f4552433732313a206f776e657220717565727920666f72206e6f6e657869737460008201527f656e7420746f6b656e0000000000000000000000000000000000000000000000602082015250565b7f45524337323155524953746f726167653a2055524920736574206f66206e6f6e60008201527f6578697374656e7420746f6b656e000000000000000000000000000000000000602082015250565b7f496e76616c696420706f73742069640000000000000000000000000000000000600082015250565b7f4552433732313a206d696e7420746f20746865207a65726f2061646472657373600082015250565b7f45524337323155524953746f726167653a2055524920717565727920666f722060008201527f6e6f6e6578697374656e7420746f6b656e000000000000000000000000000000602082015250565b7f4552433732313a20617070726f76656420717565727920666f72206e6f6e657860008201527f697374656e7420746f6b656e0000000000000000000000000000000000000000602082015250565b7f43616e6e6f74207061737320616e20656d707479206861736800000000000000600082015250565b7f4d757374206f776e206174206c65617374206f6e65204e465420746f2075706c60008201527f6f6164206120706f737400000000000000000000000000000000000000000000602082015250565b7f4552433732314d657461646174613a2055524920717565727920666f72206e6f60008201527f6e6578697374656e7420746f6b656e0000000000000000000000000000000000602082015250565b7f4552433732313a20617070726f76616c20746f2063757272656e74206f776e6560008201527f7200000000000000000000000000000000000000000000000000000000000000602082015250565b7f4d757374206f776e20746865206e667420796f752077616e7420746f2073656c60008201527f65637420617320796f75722070726f66696c6500000000000000000000000000602082015250565b7f43616e6e6f742074697020796f7572206f776e20706f73740000000000000000600082015250565b7f4552433732313a207472616e736665722063616c6c6572206973206e6f74206f60008201527f776e6572206e6f7220617070726f766564000000000000000000000000000000602082015250565b613deb816135c7565b8114613df657600080fd5b50565b613e02816135eb565b8114613e0d57600080fd5b50565b613e19816135f7565b8114613e2457600080fd5b50565b613e3081613643565b8114613e3b57600080fd5b5056fea2646970667358221220bd9503929f8da299824218640d18ed1b5a895dd71aaa56f568b3ff27f495a53a64736f6c63430008040033",
  "linkReferences": {},
  "deployedLinkReferences": {}
}